:040000000200313297
:01000B0032C2
:0100130032BA
:01001B0032B2
:0100230032AA
:03002B000201F7D8
:04008A00C200C201ED
:0300980002002E35
:03002E0002009B32
:20009B005397F85396FC43960443938053927FD2B2C2971201669000051201BA12021AD22F
:2000BB00AF90000AE0FF600DBF01028020BF0202806202015EC29720B00B200008D200906A
:2000DB00000A7401F030B0D91000D680D430B00310000020002ED29720B02490000BE00486
:2000FB00F090006412023090000BE0FFBF3200401390000BE4F0D20090000AE4F08005903B
:20011B00000BE4F020B19A200197D20190000A7402F0808D30B1031001003001030200BCFB
:20013B00C2977F00BF0600500FB2B29001F4C007120230D0070F80ECD29790000A7401F0FA
:0B015B000200BC90000AE4F00200BCAF
:0202A00000005C
:0A008E00781AE4F608F608F608F602
:2001660075A15575A1AA43B98075A15575A1AA53B9F875A15575A1AA43B90575A10022AF90
:2001860083E582900000F0EFA3F0900000E0FEA3E0FFEE4F601505A105A105A11EBEFF01FD
:2001A6001F900000EEF0EFA3F080E7900000EEF0EFA3F022AF83E582900002F0EFA3F09084
:2001C6000002E0FEA3E0FFEE4F601D9003E8C007C006120185D006D0071EBEFF011F900025
:2001E60002EEF0EFA3F080DF900002EEF0EFA3F022C0E0C0D075D00810CF028012781A742E
:200206000126F6E40836F6E40836F6E40836F6D0D0D0E03253C9BFC2C975CCCA75CDFA75CF
:20022600CACA75CBFAD2CAD2AD22AF83E582900004F0EFA3F0781A900006E6F008E6A3F08F
:2002460008E6A3F008E6A3F0900006E0F512A3E0F513A3E0F514A3E0F515900004E0F510FC
:20026600A3E0F511781AE6C39512F51608E69513F51708E69514F51808E69515F519AC105A
:16028600AD117E007F00C3E5169CE5179DE5189EE5199F40CF224B
:06006000E478FFF6D8FD74
:20003E007902E94400601B7A019002A0780A75A000E493F2A308B8000205A0D9F4DAF275BA
:02005E00A0FF01
:200066007800E84400600A790075A000E4F309D8FC780AE84400600C7901900000E4F0A38F
:04008600D8FCD9FACF
:0D00310075812012029CE582600302002E02
:04029C007582002245
:00000001FF
